{
  "_format": "hh-sol-artifact-1",
  "contractName": "BambuToken",
  "sourceName": "contracts/BambuToken.sol",
  "abi": [
    {
      "inputs": [],
      "stateMutability": "nonpayable",
      "type": "constructor"
    },
    {
      "anonymous": false,
      "inputs": [
        {
          "indexed": true,
          "internalType": "address",
          "name": "owner",
          "type": "address"
        },
        {
          "indexed": true,
          "internalType": "address",
          "name": "spender",
          "type": "address"
        },
        {
          "indexed": false,
          "internalType": "uint256",
          "name": "value",
          "type": "uint256"
        }
      ],
      "name": "Approval",
      "type": "event"
    },
    {
      "anonymous": false,
      "inputs": [
        {
          "indexed": true,
          "internalType": "address",
          "name": "previousOwner",
          "type": "address"
        },
        {
          "indexed": true,
          "internalType": "address",
          "name": "newOwner",
          "type": "address"
        }
      ],
      "name": "OwnershipTransferred",
      "type": "event"
    },
    {
      "anonymous": false,
      "inputs": [
        {
          "indexed": true,
          "internalType": "address",
          "name": "from",
          "type": "address"
        },
        {
          "indexed": true,
          "internalType": "address",
          "name": "to",
          "type": "address"
        },
        {
          "indexed": false,
          "internalType": "uint256",
          "name": "value",
          "type": "uint256"
        }
      ],
      "name": "Transfer",
      "type": "event"
    },
    {
      "inputs": [],
      "name": "TOTAL_SUPPLY",
      "outputs": [
        {
          "internalType": "uint256",
          "name": "",
          "type": "uint256"
        }
      ],
      "stateMutability": "view",
      "type": "function"
    },
    {
      "inputs": [
        {
          "internalType": "address",
          "name": "owner",
          "type": "address"
        },
        {
          "internalType": "address",
          "name": "spender",
          "type": "address"
        }
      ],
      "name": "allowance",
      "outputs": [
        {
          "internalType": "uint256",
          "name": "",
          "type": "uint256"
        }
      ],
      "stateMutability": "view",
      "type": "function"
    },
    {
      "inputs": [
        {
          "internalType": "address",
          "name": "spender",
          "type": "address"
        },
        {
          "internalType": "uint256",
          "name": "amount",
          "type": "uint256"
        }
      ],
      "name": "approve",
      "outputs": [
        {
          "internalType": "bool",
          "name": "",
          "type": "bool"
        }
      ],
      "stateMutability": "nonpayable",
      "type": "function"
    },
    {
      "inputs": [
        {
          "internalType": "address",
          "name": "account",
          "type": "address"
        }
      ],
      "name": "balanceOf",
      "outputs": [
        {
          "internalType": "uint256",
          "name": "",
          "type": "uint256"
        }
      ],
      "stateMutability": "view",
      "type": "function"
    },
    {
      "inputs": [
        {
          "internalType": "uint256",
          "name": "amount",
          "type": "uint256"
        }
      ],
      "name": "burn",
      "outputs": [],
      "stateMutability": "nonpayable",
      "type": "function"
    },
    {
      "inputs": [],
      "name": "decimals",
      "outputs": [
        {
          "internalType": "uint8",
          "name": "",
          "type": "uint8"
        }
      ],
      "stateMutability": "view",
      "type": "function"
    },
    {
      "inputs": [
        {
          "internalType": "address",
          "name": "spender",
          "type": "address"
        },
        {
          "internalType": "uint256",
          "name": "subtractedValue",
          "type": "uint256"
        }
      ],
      "name": "decreaseAllowance",
      "outputs": [
        {
          "internalType": "bool",
          "name": "",
          "type": "bool"
        }
      ],
      "stateMutability": "nonpayable",
      "type": "function"
    },
    {
      "inputs": [
        {
          "internalType": "address",
          "name": "spender",
          "type": "address"
        },
        {
          "internalType": "uint256",
          "name": "addedValue",
          "type": "uint256"
        }
      ],
      "name": "increaseAllowance",
      "outputs": [
        {
          "internalType": "bool",
          "name": "",
          "type": "bool"
        }
      ],
      "stateMutability": "nonpayable",
      "type": "function"
    },
    {
      "inputs": [],
      "name": "name",
      "outputs": [
        {
          "internalType": "string",
          "name": "",
          "type": "string"
        }
      ],
      "stateMutability": "view",
      "type": "function"
    },
    {
      "inputs": [],
      "name": "owner",
      "outputs": [
        {
          "internalType": "address",
          "name": "",
          "type": "address"
        }
      ],
      "stateMutability": "view",
      "type": "function"
    },
    {
      "inputs": [],
      "name": "renounceOwnership",
      "outputs": [],
      "stateMutability": "nonpayable",
      "type": "function"
    },
    {
      "inputs": [],
      "name": "symbol",
      "outputs": [
        {
          "internalType": "string",
          "name": "",
          "type": "string"
        }
      ],
      "stateMutability": "view",
      "type": "function"
    },
    {
      "inputs": [],
      "name": "totalSupply",
      "outputs": [
        {
          "internalType": "uint256",
          "name": "",
          "type": "uint256"
        }
      ],
      "stateMutability": "view",
      "type": "function"
    },
    {
      "inputs": [
        {
          "internalType": "address",
          "name": "to",
          "type": "address"
        },
        {
          "internalType": "uint256",
          "name": "amount",
          "type": "uint256"
        }
      ],
      "name": "transfer",
      "outputs": [
        {
          "internalType": "bool",
          "name": "",
          "type": "bool"
        }
      ],
      "stateMutability": "nonpayable",
      "type": "function"
    },
    {
      "inputs": [
        {
          "internalType": "address",
          "name": "from",
          "type": "address"
        },
        {
          "internalType": "address",
          "name": "to",
          "type": "address"
        },
        {
          "internalType": "uint256",
          "name": "amount",
          "type": "uint256"
        }
      ],
      "name": "transferFrom",
      "outputs": [
        {
          "internalType": "bool",
          "name": "",
          "type": "bool"
        }
      ],
      "stateMutability": "nonpayable",
      "type": "function"
    },
    {
      "inputs": [
        {
          "internalType": "address",
          "name": "newOwner",
          "type": "address"
        }
      ],
      "name": "transferOwnership",
      "outputs": [],
      "stateMutability": "nonpayable",
      "type": "function"
    },
    {
      "inputs": [],
      "name": "withdrawRemainingTokens",
      "outputs": [],
      "stateMutability": "nonpayable",
      "type": "function"
    }
  ],
  "bytecode": "0x608060405234801561001057600080fd5b506040518060400160405280600581526020017f42616d62750000000000000000000000000000000000000000000000000000008152506040518060400160405280600381526020017f4262750000000000000000000000000000000000000000000000000000000000815250816003908161008c9190610565565b50806004908161009c9190610565565b5050506100bb6100b06100db60201b60201c565b6100e360201b60201c565b6100d6336a52b7d2dcc80cd2e40000006101a960201b60201c565b610741565b600033905090565b6000600560009054906101000a900473ffffffffffffffffffffffffffffffffffffffff16905081600560006101000a81548173ffffffffffffffffffffffffffffffffffffffff021916908373ffffffffffffffffffffffffffffffffffffffff1602179055508173ffffffffffffffffffffffffffffffffffffffff168173ffffffffffffffffffffffffffffffffffffffff167f8be0079c531659141344cd1fd0a4f28419497f9722a3daafe3b4186f6b6457e060405160405180910390a35050565b600073ffffffffffffffffffffffffffffffffffffffff168273ffffffffffffffffffffffffffffffffffffffff1603610218576040517f08c379a000000000000000000000000000000000000000000000000000000000815260040161020f90610694565b60405180910390fd5b61022a6000838361030b60201b60201c565b806002600082825461023c91906106e3565b92505081905550806000808473ffffffffffffffffffffffffffffffffffffffff1673ffffffffffffffffffffffffffffffffffffffff168152602001908152602001600020600082825401925050819055508173ffffffffffffffffffffffffffffffffffffffff16600073ffffffffffffffffffffffffffffffffffffffff167fddf252ad1be2c89b69c2b068fc378daa952ba7f163c4a11628f55a4df523b3ef836040516102ed9190610726565b60405180910390a36103076000838361031060201b60201c565b5050565b505050565b505050565b600081519050919050565b7f4e487b7100000000000000000000000000000000000000000000000000000000600052604160045260246000fd5b7f4e487b7100000000000000000000000000000000000000000000000000000000600052602260045260246000fd5b6000600282049050600182168061039657607f821691505b6020821081036103a9576103a861034f565b5b50919050565b60008190508160005260206000209050919050565b60006020601f8301049050919050565b600082821b905092915050565b6000600883026104117fffffffffffffffffffffffffffffffffffffffffffffffffffffffffffffffff826103d4565b61041b86836103d4565b95508019841693508086168417925050509392505050565b6000819050919050565b6000819050919050565b600061046261045d61045884610433565b61043d565b610433565b9050919050565b6000819050919050565b61047c83610447565b61049061048882610469565b8484546103e1565b825550505050565b600090565b6104a5610498565b6104b0818484610473565b505050565b5b818110156104d4576104c960008261049d565b6001810190506104b6565b5050565b601f821115610519576104ea816103af565b6104f3846103c4565b81016020851015610502578190505b61051661050e856103c4565b8301826104b5565b50505b505050565b600082821c905092915050565b600061053c6000198460080261051e565b1980831691505092915050565b6000610555838361052b565b9150826002028217905092915050565b61056e82610315565b67ffffffffffffffff81111561058757610586610320565b5b610591825461037e565b61059c8282856104d8565b600060209050601f8311600181146105cf57600084156105bd578287015190505b6105c78582610549565b86555061062f565b601f1984166105dd866103af565b60005b82811015610605578489015182556001820191506020850194506020810190506105e0565b86831015610622578489015161061e601f89168261052b565b8355505b6001600288020188555050505b505050505050565b600082825260208201905092915050565b7f45524332303a206d696e7420746f20746865207a65726f206164647265737300600082015250565b600061067e601f83610637565b915061068982610648565b602082019050919050565b600060208201905081810360008301526106ad81610671565b9050919050565b7f4e487b7100000000000000000000000000000000000000000000000000000000600052601160045260246000fd5b60006106ee82610433565b91506106f983610433565b9250828201905080821115610711576107106106b4565b5b92915050565b61072081610433565b82525050565b600060208201905061073b6000830184610717565b92915050565b6119a3806107506000396000f3fe608060405234801561001057600080fd5b506004361061010b5760003560e01c8063715018a6116100a257806395d89b411161007157806395d89b4114610296578063a457c2d7146102b4578063a9059cbb146102e4578063dd62ed3e14610314578063f2fde38b146103445761010b565b8063715018a6146102465780638afbf669146102505780638da5cb5b1461025a578063902d55a5146102785761010b565b8063313ce567116100de578063313ce567146101ac57806339509351146101ca57806342966c68146101fa57806370a08231146102165761010b565b806306fdde0314610110578063095ea7b31461012e57806318160ddd1461015e57806323b872dd1461017c575b600080fd5b610118610360565b6040516101259190611007565b60405180910390f35b610148600480360381019061014391906110c2565b6103f2565b604051610155919061111d565b60405180910390f35b610166610415565b6040516101739190611147565b60405180910390f35b61019660048036038101906101919190611162565b61041f565b6040516101a3919061111d565b60405180910390f35b6101b461044e565b6040516101c191906111d1565b60405180910390f35b6101e460048036038101906101df91906110c2565b610457565b6040516101f1919061111d565b60405180910390f35b610214600480360381019061020f91906111ec565b61048e565b005b610230600480360381019061022b9190611219565b61049b565b60405161023d9190611147565b60405180910390f35b61024e6104e3565b005b6102586104f7565b005b61026261051a565b60405161026f9190611255565b60405180910390f35b610280610544565b60405161028d9190611147565b60405180910390f35b61029e610553565b6040516102ab9190611007565b60405180910390f35b6102ce60048036038101906102c991906110c2565b6105e5565b6040516102db919061111d565b60405180910390f35b6102fe60048036038101906102f991906110c2565b61065c565b60405161030b919061111d565b60405180910390f35b61032e60048036038101906103299190611270565b61067f565b60405161033b9190611147565b60405180910390f35b61035e60048036038101906103599190611219565b610706565b005b60606003805461036f906112df565b80601f016020809104026020016040519081016040528092919081815260200182805461039b906112df565b80156103e85780601f106103bd576101008083540402835291602001916103e8565b820191906000526020600020905b8154815290600101906020018083116103cb57829003601f168201915b5050505050905090565b6000806103fd610789565b905061040a818585610791565b600191505092915050565b6000600254905090565b60008061042a610789565b905061043785828561095a565b6104428585856109e6565b60019150509392505050565b60006012905090565b600080610462610789565b9050610483818585610474858961067f565b61047e919061133f565b610791565b600191505092915050565b6104983382610c5c565b50565b60008060008373ffffffffffffffffffffffffffffffffffffffff1673ffffffffffffffffffffffffffffffffffffffff168152602001908152602001600020549050919050565b6104eb610e29565b6104f56000610ea7565b565b6104ff610e29565b600061050a3061049b565b90506105173033836109e6565b50565b6000600560009054906101000a900473ffffffffffffffffffffffffffffffffffffffff16905090565b6a52b7d2dcc80cd2e400000081565b606060048054610562906112df565b80601f016020809104026020016040519081016040528092919081815260200182805461058e906112df565b80156105db5780601f106105b0576101008083540402835291602001916105db565b820191906000526020600020905b8154815290600101906020018083116105be57829003601f168201915b5050505050905090565b6000806105f0610789565b905060006105fe828661067f565b905083811015610643576040517f08c379a000000000000000000000000000000000000000000000000000000000815260040161063a906113e5565b60405180910390fd5b6106508286868403610791565b60019250505092915050565b600080610667610789565b90506106748185856109e6565b600191505092915050565b6000600160008473ffffffffffffffffffffffffffffffffffffffff1673ffffffffffffffffffffffffffffffffffffffff16815260200190815260200160002060008373ffffffffffffffffffffffffffffffffffffffff1673ffffffffffffffffffffffffffffffffffffffff16815260200190815260200160002054905092915050565b61070e610e29565b600073ffffffffffffffffffffffffffffffffffffffff168173ffffffffffffffffffffffffffffffffffffffff160361077d576040517f08c379a000000000000000000000000000000000000000000000000000000000815260040161077490611477565b60405180910390fd5b61078681610ea7565b50565b600033905090565b600073ffffffffffffffffffffffffffffffffffffffff168373ffffffffffffffffffffffffffffffffffffffff1603610800576040517f08c379a00000000000000000000000000000000000000000000000000000000081526004016107f790611509565b60405180910390fd5b600073ffffffffffffffffffffffffffffffffffffffff168273ffffffffffffffffffffffffffffffffffffffff160361086f576040517f08c379a00000000000000000000000000000000000000000000000000000000081526004016108669061159b565b60405180910390fd5b80600160008573ffffffffffffffffffffffffffffffffffffffff1673ffffffffffffffffffffffffffffffffffffffff16815260200190815260200160002060008473ffffffffffffffffffffffffffffffffffffffff1673ffffffffffffffffffffffffffffffffffffffff168152602001908152602001600020819055508173ffffffffffffffffffffffffffffffffffffffff168373ffffffffffffffffffffffffffffffffffffffff167f8c5be1e5ebec7d5bd14f71427d1e84f3dd0314c0f7b2291e5b200ac8c7c3b9258360405161094d9190611147565b60405180910390a3505050565b6000610966848461067f565b90507fffffffffffffffffffffffffffffffffffffffffffffffffffffffffffffffff81146109e057818110156109d2576040517f08c379a00000000000000000000000000000000000000000000000000000000081526004016109c990611607565b60405180910390fd5b6109df8484848403610791565b5b50505050565b600073ffffffffffffffffffffffffffffffffffffffff168373ffffffffffffffffffffffffffffffffffffffff1603610a55576040517f08c379a0000000000000000000000000000000000000000000000000000000008152600401610a4c90611699565b60405180910390fd5b600073ffffffffffffffffffffffffffffffffffffffff168273ffffffffffffffffffffffffffffffffffffffff1603610ac4576040517f08c379a0000000000000000000000000000000000000000000000000000000008152600401610abb9061172b565b60405180910390fd5b610acf838383610f6d565b60008060008573ffffffffffffffffffffffffffffffffffffffff1673ffffffffffffffffffffffffffffffffffffffff16815260200190815260200160002054905081811015610b55576040517f08c379a0000000000000000000000000000000000000000000000000000000008152600401610b4c906117bd565b60405180910390fd5b8181036000808673ffffffffffffffffffffffffffffffffffffffff1673ffffffffffffffffffffffffffffffffffffffff16815260200190815260200160002081905550816000808573ffffffffffffffffffffffffffffffffffffffff1673ffffffffffffffffffffffffffffffffffffffff168152602001908152602001600020600082825401925050819055508273ffffffffffffffffffffffffffffffffffffffff168473ffffffffffffffffffffffffffffffffffffffff167fddf252ad1be2c89b69c2b068fc378daa952ba7f163c4a11628f55a4df523b3ef84604051610c439190611147565b60405180910390a3610c56848484610f72565b50505050565b600073ffffffffffffffffffffffffffffffffffffffff168273ffffffffffffffffffffffffffffffffffffffff1603610ccb576040517f08c379a0000000000000000000000000000000000000000000000000000000008152600401610cc29061184f565b60405180910390fd5b610cd782600083610f6d565b60008060008473ffffffffffffffffffffffffffffffffffffffff1673ffffffffffffffffffffffffffffffffffffffff16815260200190815260200160002054905081811015610d5d576040517f08c379a0000000000000000000000000000000000000000000000000000000008152600401610d54906118e1565b60405180910390fd5b8181036000808573ffffffffffffffffffffffffffffffffffffffff1673ffffffffffffffffffffffffffffffffffffffff1681526020019081526020016000208190555081600260008282540392505081905550600073ffffffffffffffffffffffffffffffffffffffff168373ffffffffffffffffffffffffffffffffffffffff167fddf252ad1be2c89b69c2b068fc378daa952ba7f163c4a11628f55a4df523b3ef84604051610e109190611147565b60405180910390a3610e2483600084610f72565b505050565b610e31610789565b73ffffffffffffffffffffffffffffffffffffffff16610e4f61051a565b73ffffffffffffffffffffffffffffffffffffffff1614610ea5576040517f08c379a0000000000000000000000000000000000000000000000000000000008152600401610e9c9061194d565b60405180910390fd5b565b6000600560009054906101000a900473ffffffffffffffffffffffffffffffffffffffff16905081600560006101000a81548173ffffffffffffffffffffffffffffffffffffffff021916908373ffffffffffffffffffffffffffffffffffffffff1602179055508173ffffffffffffffffffffffffffffffffffffffff168173ffffffffffffffffffffffffffffffffffffffff167f8be0079c531659141344cd1fd0a4f28419497f9722a3daafe3b4186f6b6457e060405160405180910390a35050565b505050565b505050565b600081519050919050565b600082825260208201905092915050565b60005b83811015610fb1578082015181840152602081019050610f96565b60008484015250505050565b6000601f19601f8301169050919050565b6000610fd982610f77565b610fe38185610f82565b9350610ff3818560208601610f93565b610ffc81610fbd565b840191505092915050565b600060208201905081810360008301526110218184610fce565b905092915050565b600080fd5b600073ffffffffffffffffffffffffffffffffffffffff82169050919050565b60006110598261102e565b9050919050565b6110698161104e565b811461107457600080fd5b50565b60008135905061108681611060565b92915050565b6000819050919050565b61109f8161108c565b81146110aa57600080fd5b50565b6000813590506110bc81611096565b92915050565b600080604083850312156110d9576110d8611029565b5b60006110e785828601611077565b92505060206110f8858286016110ad565b9150509250929050565b60008115159050919050565b61111781611102565b82525050565b6000602082019050611132600083018461110e565b92915050565b6111418161108c565b82525050565b600060208201905061115c6000830184611138565b92915050565b60008060006060848603121561117b5761117a611029565b5b600061118986828701611077565b935050602061119a86828701611077565b92505060406111ab868287016110ad565b9150509250925092565b600060ff82169050919050565b6111cb816111b5565b82525050565b60006020820190506111e660008301846111c2565b92915050565b60006020828403121561120257611201611029565b5b6000611210848285016110ad565b91505092915050565b60006020828403121561122f5761122e611029565b5b600061123d84828501611077565b91505092915050565b61124f8161104e565b82525050565b600060208201905061126a6000830184611246565b92915050565b6000806040838503121561128757611286611029565b5b600061129585828601611077565b92505060206112a685828601611077565b9150509250929050565b7f4e487b7100000000000000000000000000000000000000000000000000000000600052602260045260246000fd5b600060028204905060018216806112f757607f821691505b60208210810361130a576113096112b0565b5b50919050565b7f4e487b7100000000000000000000000000000000000000000000000000000000600052601160045260246000fd5b600061134a8261108c565b91506113558361108c565b925082820190508082111561136d5761136c611310565b5b92915050565b7f45524332303a2064656372656173656420616c6c6f77616e63652062656c6f7760008201527f207a65726f000000000000000000000000000000000000000000000000000000602082015250565b60006113cf602583610f82565b91506113da82611373565b604082019050919050565b600060208201905081810360008301526113fe816113c2565b9050919050565b7f4f776e61626c653a206e6577206f776e657220697320746865207a65726f206160008201527f6464726573730000000000000000000000000000000000000000000000000000602082015250565b6000611461602683610f82565b915061146c82611405565b604082019050919050565b6000602082019050818103600083015261149081611454565b9050919050565b7f45524332303a20617070726f76652066726f6d20746865207a65726f2061646460008201527f7265737300000000000000000000000000000000000000000000000000000000602082015250565b60006114f3602483610f82565b91506114fe82611497565b604082019050919050565b60006020820190508181036000830152611522816114e6565b9050919050565b7f45524332303a20617070726f766520746f20746865207a65726f20616464726560008201527f7373000000000000000000000000000000000000000000000000000000000000602082015250565b6000611585602283610f82565b915061159082611529565b604082019050919050565b600060208201905081810360008301526115b481611578565b9050919050565b7f45524332303a20696e73756666696369656e7420616c6c6f77616e6365000000600082015250565b60006115f1601d83610f82565b91506115fc826115bb565b602082019050919050565b60006020820190508181036000830152611620816115e4565b9050919050565b7f45524332303a207472616e736665722066726f6d20746865207a65726f20616460008201527f6472657373000000000000000000000000000000000000000000000000000000602082015250565b6000611683602583610f82565b915061168e82611627565b604082019050919050565b600060208201905081810360008301526116b281611676565b9050919050565b7f45524332303a207472616e7366657220746f20746865207a65726f206164647260008201527f6573730000000000000000000000000000000000000000000000000000000000602082015250565b6000611715602383610f82565b9150611720826116b9565b604082019050919050565b6000602082019050818103600083015261174481611708565b9050919050565b7f45524332303a207472616e7366657220616d6f756e742065786365656473206260008201527f616c616e63650000000000000000000000000000000000000000000000000000602082015250565b60006117a7602683610f82565b91506117b28261174b565b604082019050919050565b600060208201905081810360008301526117d68161179a565b9050919050565b7f45524332303a206275726e2066726f6d20746865207a65726f2061646472657360008201527f7300000000000000000000000000000000000000000000000000000000000000602082015250565b6000611839602183610f82565b9150611844826117dd565b604082019050919050565b600060208201905081810360008301526118688161182c565b9050919050565b7f45524332303a206275726e20616d6f756e7420657863656564732062616c616e60008201527f6365000000000000000000000000000000000000000000000000000000000000602082015250565b60006118cb602283610f82565b91506118d68261186f565b604082019050919050565b600060208201905081810360008301526118fa816118be565b9050919050565b7f4f776e61626c653a2063616c6c6572206973206e6f7420746865206f776e6572600082015250565b6000611937602083610f82565b915061194282611901565b602082019050919050565b600060208201905081810360008301526119668161192a565b905091905056fea2646970667358221220b86f118942f29fc908184860e5ecd46ed0a0c4c1c5750e79410381ff4f6871ae64736f6c634300081b0033",
  "linkReferences": {},
  "deployedLinkReferences": {}
}